:100000000C9462000C948A000C948A000C948A0070
:100010000C948A000C948A000C948A000C948A0038
:100020000C948A000C948A000C948A000C9484022C
:100030000C948A000C948A000C948A000C948A0018
:100040000C943A020C948A000C948A000C948A0056
:100050000C948A000C948A000C948A000C948A00F8
:100060000C948A000C948A000000000024002700F1
:100070002A0000000000250028002B0000000000DE
:1000800023002600290004040404040404040202DA
:100090000202020203030303030301020408102007
:1000A0004080010204081020010204081020000012
:1000B0000008000201000003040700000000000027
:1000C0000000890411241FBECFEFD8E0DEBFCDBFF2
:1000D00011E0A0E0B1E0EEE6FAE002C005900D927A
:1000E000A030B107D9F721E0A0E0B1E001C01D9236
:1000F000AA33B207E1F710E0C2E6D0E004C02197CE
:10010000FE010E942F05C136D107C9F70E944503A1
:100110000C9435050C940000833081F028F4813074
:1001200099F08230A1F008958730A9F08830B9F0B5
:100130008430D1F4809180008F7D03C08091800055
:100140008F7780938000089584B58F7702C084B53F
:100150008F7D84BD08958091B0008F7703C080911A
:10016000B0008F7D8093B0000895CF93DF93282F48
:1001700030E0F901E255FF4F8491F901E656FF4F57
:10018000D491F901EA57FF4FC491CC2391F081112A
:100190000E948C00EC2FF0E0EE0FFF1FE458FF4FA1
:1001A000A591B491EC91ED2381E090E021F480E001
:1001B00002C080E090E0DF91CF9108951F93CF932C
:1001C000DF93282F30E0F901E255FF4F8491F901C8
:1001D000E656FF4FD491F901EA57FF4FC491CC2363
:1001E000C1F0162F81110E948C00EC2FF0E0EE0F71
:1001F000FF1FEE58FF4FA591B4919FB7F8941111CE
:1002000004C08C91D095D82302C0EC91DE2BDC93F6
:100210009FBFDF91CF911F910895CF93DF9390E01F
:10022000FC01E656FF4F2491FC01EA57FF4F8491F1
:10023000882361F190E0880F991FFC01E859FF4F76
:10024000C591D491FC01EE58FF4FA591B491611175
:1002500009C09FB7F8948881209582238883EC9108
:100260002E230BC0623061F49FB7F8948881322F3F
:10027000309583238883EC912E2B2C939FBF06C04F
:100280008FB7F894E8812E2B28838FBFDF91CF9111
:1002900008953FB7F8948091360190913701A0916D
:1002A0003801B091390126B5A89B05C02F3F19F040
:1002B0000196A11DB11D3FBFBA2FA92F982F8827E6
:1002C000820F911DA11DB11DBC01CD0142E0660F41
:1002D000771F881F991F4A95D1F708958F929F9293
:1002E000AF92BF92CF92DF92EF92FF920E944901AC
:1002F0004B015C018FE0C82ED12CE12CF12C0E9427
:100300004901DC01CB0188199909AA09BB09883E7A
:100310009340A105B10598F321E0C21AD108E10884
:10032000F10888EE880E83E0981EA11CB11CC11450
:10033000D104E104F10419F7FF90EF90DF90CF9022
:10034000BF90AF909F908F900895CF92DF92EF92E1
:10035000FF92CF93DF93EC01603282E078070CF0DC
:100360003DC077FD06C0653B71052CF064EB70E085
:1003700002C060E070E0898128E830E06901C81AB5
:10038000D10887FDD394CC0CDD1CCC0CDD1C0D2CCE
:10039000000CEE08FF088A8128E532E0281B3109AD
:1003A00087FD3395220F331F220F331FC901330FEF
:1003B000AA0BBB0B9C01AD012C193D094E095F092D
:1003C000DB010E94EA0424EB30E040E050E00E94B0
:1003D000C004C20ED31EE41EF51EB60138813C30A7
:1003E00080F5298188E890E0821B910927FD93958B
:1003F000880F991F880F991F6817790784F08A81E1
:1004000048E552E0481B510987FD5395440F551F9D
:10041000440F551FCB01461757070CF4CA0102972A
:10042000880F991F4FB7F894232F30E0F901EE0F92
:10043000FF1F2E0F3F1FF901EE5FFE4F9283818356
:100440004FBFDF91CF91FF90EF90DF90CF90089555
:10045000892B79F41092800082E0809381001092C1
:10046000850010928400B19A80916F008260809321
:100470006F0008951F920F920FB60F9211242F93C1
:100480003F938F939F93AF93BF938091320190914D
:100490003301A0913401B09135013091310123E055
:1004A000230F2D3720F40196A11DB11D05C026E8AC
:1004B000230F0296A11DB11D2093310180933201BB
:1004C00090933301A0933401B093350180913601AC
:1004D00090913701A0913801B09139010196A11D89
:1004E000B11D8093360190933701A0933801B093EA
:1004F0003901BF91AF919F918F913F912F910F90B3
:100500000FBE0F901F9018951F920F920FB60F926B
:1005100011242F933F934F935F936F937F938F9308
:100520009F93AF93BF93EF93FF938091010187FF58
:1005300005C010928500109284001BC0209101011B
:10054000022E000C330B8091000190E02817390730
:1005500084F480910101082E000C990BFC01EE0F30
:10056000FF1F8E0F9F1FFC01EE5FFE4F808186FDF7
:1005700015C0809101018F5F8093010120910101DD
:10058000022E000C330B8091000190E028173907F0
:10059000C4F4809101018C3064F113C08091010199
:1005A000082E000C990BFC01EE0FFF1F8E0F9F1FF2
:1005B000FC01EE5FFE4F808160E08F730E94DE00E1
:1005C000D8CF8091840090918500049680349C4916
:1005D00018F480E49CE905C0809184009091850026
:1005E000049690938900809388008FEF8093010197
:1005F0003BC0209184003091850080910101082E3C
:10060000000C990BFC01EE0FFF1F8E0F9F1FFC01CA
:10061000EE5FFE4F81819281820F931F909389003C
:100620008093880080910101082E000C990BFC0139
:10063000EE0FFF1F8E0F9F1FFC01EE5FFE4F8081AC
:1006400086FF12C080910101082E000C990BFC015D
:10065000EE0FFF1F8E0F9F1FFC01EE5FFE4F80818C
:1006600061E08F730E94DE00FF91EF91BF91AF9127
:100670009F918F917F916F915F914F913F912F91BA
:100680000F900FBE0F901F901895789484B58260DC
:1006900084BD84B5816084BD85B5826085BD85B526
:1006A000816085BD80916E00816080936E001092A4
:1006B000810080918100826080938100809181001F
:1006C00081608093810080918000816080938000B0
:1006D0008091B10084608093B1008091B00081600E
:1006E0008093B00080917A00846080937A0080913A
:1006F0007A00826080937A0080917A008160809392
:100700007A0080917A00806880937A001092C1000C
:10071000809129018C3008F043C061E089E00E949B
:100720000D0180912901E82FF0E09F01220F331F76
:10073000E20FF31FEE5FFE4F9081907C99609083F3
:1007400010922A0110922B016CE00E94230590E088
:100750002CE0829FB001112440E050E09B01240F67
:10076000351FF901EE0FFF1F2E0F3F1FF901EE5F3E
:10077000FE4F208126FD07C04F5F5F4F4C30510573
:1007800069F70E942802E0912901F0E0CF01880F6B
:10079000991FE80FF91FEE5FFE4F80818064808310
:1007A000809126018C3008F043C061E085E00E9412
:1007B0000D0180912601E82FF0E09F01220F331FE9
:1007C000E20FF31FEE5FFE4F9081907C9560908367
:1007D00010922701109228016CE00E94230590E0FE
:1007E0002CE0829FB001112440E050E09B01240FD7
:1007F000351FF901EE0FFF1F2E0F3F1FF901EE5FAE
:10080000FE4F208126FD07C04F5F5F4F4C305105E2
:1008100069F70E942802E0912601F0E0CF01880FDD
:10082000991FE80FF91FEE5FFE4F8081806480837F
:1008300060E08AE00E940D0160E08BE00E940D0103
:1008400080E0E82E80E0F82E04EB10E08AE00E94C1
:10085000B5008BE00E94B50021E0009709F420E08C
:1008600020933001892B59F110932F0100932E0111
:10087000C0912E01D0912F01D7FD1BC060912C019A
:1008800070912D016F5F7F4F70932D0160932C014C
:1008900089E291E00E94A501BE0186E291E00E94FA
:1008A000A5010E946E012197D0932F01C0932E01C4
:1008B000DFCFE114F10451F20E940000C7CF109382
:1008C0002D0100932C0110922F0110922E01C09146
:1008D0002E01D0912F01C43BD1055CF360912C0116
:1008E00070912D016150710970932D0160932C015D
:1008F00089E291E00E94A501BE0186E291E00E949A
:10090000A5010E946E012196D0932F01C0932E0164
:10091000DECF809100018C30A0F491E0980F90938D
:1009200000018093290190E0FC01EE0FFF1F8E0F64
:100930009F1FFC01EE5FFE4F88EB9BE0928381835B
:1009400003C08FEF80932901809100018C30A0F4C7
:1009500091E0980F909300018093260190E0FC01B4
:10096000EE0FFF1F8E0F9F1FFC01EE5FFE4F88EB07
:100970009BE09283818308958FEF809326010895F1
:10098000052E97FB1EF400940E94D70457FD07D054
:100990000E94F20407FC03D04EF40C94D704509547
:1009A0004095309521953F4F4F4F5F4F089590955B
:1009B0008095709561957F4F8F4F9F4F08950E944E
:1009C0001405A59F900DB49F900DA49F800D911DBF
:1009D00011240895B7FF0C94DF040E94DF04821BEA
:1009E000930B0895A1E21A2EAA1BBB1BFD010DC09B
:1009F000AA1FBB1FEE1FFF1FA217B307E407F507CF
:100A000020F0A21BB30BE40BF50B661F771F881FAA
:100A1000991F1A9469F760957095809590959B0140
:100A2000AC01BD01CF010895A29FB001B39FC001E9
:100A3000A39F700D811D1124911DB29F700D811D0A
:100A40001124911D0895991B79E004C0991F9617F0
:100A500008F0961B881F7A95C9F780950895EE0FC8
:0E0A6000FF1F0590F491E02D0994F894FFCF4C
:00000001FF
